:020000040800F2
:1000000040200020F51400081115000815150008FF
:10001000191500081D150008211500080000000032
:10002000000000000000000000000000251500088E
:1000300029150008000000002D15000831150008E2
:1000400035150008391500083D1500084115000850
:1000500045150008491500084D1500085115000800
:1000600055150008591500085D15000861150008B0
:1000700065150008691500086D1500087115000860
:1000800075150008791500087D1500088115000810
:1000900085150008891500088D15000891150008C0
:1000A00095150008991500089D150008A115000870
:1000B000A5150008A9150008210B0008AD150008BA
:1000C000B1150008B5150008B9150008BD150008E0
:1000D000C1150008C5150008C9150008CD15000890
:1000E000D1150008D5150008D9150008DD15000840
:1000F000E1150008E5150008E9150008ED150008F0
:10010000F1150008F5150008F9150008FD1500089F
:100110005109000801160008051600080916000814
:100120000D1600081116000815160008191600080B
:100130001D160008211600082516000829160008BB
:100140002D1600083116000835160008391600086B
:100150003D1600084116000845160008491600081B
:100160004D160008511600085516000859160008CB
:100170005D1600086116000865160008691600087B
:100180006D1600087116000880B50121012000F0ED
:1001900021FB0121022000F01DFB0121042000F0C1
:1001A00019FB0121082000F015FB0121102000F0AF
:1001B00011FBDFF8080500F08EFB0420DFF8FC14CB
:1001C00008600120DFF8F41408710220DFF8EC1455
:1001D0004871DFF8E814DFF8E80400F027FBDFF8E7
:1001E000DC0400F078FB4FF48060DFF8D014086086
:1001F0000120DFF8C81408710220DFF8C01448712C
:10020000DFF8B814DFF8BC0400F010FBDFF8AC0432
:1002100000F061FB4FF48040DFF8A014086001207B
:10022000DFF8981408710220DFF890144871DFF8A5
:100230008C14DFF8900400F0F9FADFF8800400F085
:100240004AFB0420DFF8741408600120DFF86C1406
:1002500008710220DFF864144871DFF86014DFF8D9
:10026000680400F0E3FADFF8540400F034FB4FF4C4
:100270008050DFF8481408600120DFF8401408714E
:100280000220DFF838144871DFF83014DFF830044A
:1002900000F0CCFADFF8240400F01DFB4FF480706E
:1002A000DFF8181408600120DFF81014087102202C
:1002B000DFF808144871DFF80414DFF8100400F0C8
:1002C000B5FADFF8F80300F006FB4FF48060DFF8C2
:1002D000EC1308600120DFF8E41308710220DFF856
:1002E000DC134871DFF8D413DFF8E00300F09EFA66
:1002F000DFF8C80300F0EFFA4FF40040DFF8BC135A
:1003000008600120DFF8B41308710220DFF8AC1395
:100310004871DFF8A813DFF8B40300F087FADFF8BC
:100320009C0300F0D8FA4FF40060DFF890130860E7
:100330000120DFF8881308710220DFF8801348716C
:10034000DFF87813DFF8800300F070FADFF86C0351
:1003500000F0C1FA0820DFF8641308600120DFF81C
:100360005C1308710220DFF854134871DFF84C1356
:10037000DFF8580300F05AFADFF8400300F0ABFA58
:100380002020DFF8381308600120DFF830130871EF
:100390000220DFF828134871DFF82013DFF82C0360
:1003A00000F044FA01BD10B586B0040001A800F0C9
:1003B00091F90298DFF81813B0FBF1F06043009058
:1003C0000098002803D00098401E0090F8E706B07F
:1003D00010BD80B54FF48041DFF8E80200F087FAE5
:1003E0000220FFF7E0FF4FF48041DFF8D80200F071
:1003F00080FA01BD80B50421DFF8C40200F079FA6B
:100400004FF48061DFF8BC0200F073FA0421DFF8DA
:10041000B80200F06EFA4FF48051DFF8A40200F049
:1004200068FA4FF48071DFF8A40200F062FA4FF42A
:100430008061DFF8980200F05CFA4FF40041DFF8C9
:100440008C0200F056FA4FF40061DFF87C0200F0F5
:1004500050FA0821DFF8740200F04BFA2021DFF88F
:100460006C0200F044FAFFF7B4FF01BD70B5040060
:100470000D0016000421DFF8480200F03AFA4FF4AC
:100480008061DFF8400200F034FA0421DFF838021E
:1004900000F02FFA4FF48051DFF8240200F029FA1F
:1004A0004FF48071DFF8240200F023FA4FF48061EA
:1004B000DFF8180200F01DFA4FF40041DFF80C02DB
:1004C00000F015FAE4B2012C06D14FF40061DFF818
:1004D000F80100F00CFA05E04FF40061DFF8E801E4
:1004E00000F007FAEDB2012D05D10821DFF8DC019B
:1004F00000F0FDF904E00821DFF8D00100F0F9F97F
:10050000F6B2012E05D12021DFF8C00100F0EFF98D
:1005100004E02021DFF8B40100F0EBF9FFF759FF08
:1005200070BD70B504000D0016000421DFF89001C5
:1005300000F0DFF94FF48061DFF8880100F0D9F9AD
:100540000421DFF8840100F0D4F94FF48051DFF882
:10055000700100F0CEF94FF48071DFF8700100F007
:10056000C6F9E4B2012C06D14FF48061DFF85C01DA
:1005700000F0BDF905E04FF48061DFF8500100F0B4
:10058000B8F9EDB2012D06D14FF40041DFF83C017E
:1005900000F0ADF905E04FF40041DFF8300100F064
:1005A000A8F9F6B2012E06D14FF40061DFF8180168
:1005B00000F09DF905E04FF40061DFF80C0100F058
:1005C00098F90821414800F094F920213F4800F0B3
:1005D00090F9FFF7FEFE70BD10B504000421384805
:1005E00000F085F94FF48061364800F082F920066A
:1005F00004D50421344800F07AF903E0042132489C
:1006000000F077F9600605D54FF480512C4800F0D2
:100610006EF904E04FF48051294800F06AF9A00611
:1006200005D54FF48071294800F061F904E04FF4DA
:100630008071264800F05DF9E00605D54FF4806131
:10064000224800F054F904E04FF480611F4800F0A4
:1006500050F9200705D54FF400411C4800F047F938
:1006600004E04FF40041194800F043F9600705D554
:100670004FF40061144800F03AF904E04FF40061CF
:10068000114800F036F9A00704D508210F4800F002
:100690002EF903E008210D4800F02BF9E00704D5FE
:1006A00020210A4800F023F903E02021074800F048
:1006B00020F9FFF78EFE10BD000000001C00002096
:1006C0000008024000040240000C0240000002400A
:1006D00080969800F0B40021002200230224002517
:1006E0000226DFF82C713F6817F00C0739000F0065
:1006F000002F04D0042F06D0082F08D03CE0DFF8EC
:10070000187107603BE0DFF81471076037E0DFF82D
:1007100004713F68C7F380573D00DFF8F8703F6809
:1007200017F03F073E00002D0DD0DFF8F070B7FB4B
:10073000F6F7DFF8E0C0DCF800C0CCF3881C0CFB57
:1007400007F73B000CE0DFF8D070B7FBF6F7DFF8F7
:10075000C4C0DCF800C0CCF3881C0CFB07F73B00DE
:10076000DFF8B0703F68C7F301477F1C7F003C0093
:10077000B3FBF4F7076002E0DFF89C700760DFF876
:1007800090703F6817F0F00739000909DFF89070A2
:10079000CF5D3A000768D7404760DFF874703F6864
:1007A00017F4E0573900890ADFF87470CF5D3A001A
:1007B0004768D7408760164F3F6817F46047390095
:1007C000490BDFF85C70CF5D3A004768D740C760DF
:1007D000F0BC7047C9B2002905D0124A1268024322
:1007E000104B1A6004E00F4A126882430D4B1A60E6
:1007F0007047C9B2002905D00B4A126802430A4B60
:100800001A6004E0084A12688243074B1A60704776
:1008100008380240043802400024F40000127A0034
:10082000000000203038024040380240F0B400227E
:100830000023002400252A00102A4AD201259540D1
:100840002B000D681D402C009C4240D105680326FA
:100850001700FFB27F00BE40B543056005680E7902
:100860001700FFB27F00BE40354305600D79012DB2
:1008700002D00D79022D1AD1856803261700FFB228
:100880007F00BE40B543856085684E791700FFB292
:100890007F00BE4035438560456801269640B543DC
:1008A000456045688E799640B6B235434560C56867
:1008B00003261700FFB27F00BE40B543C560C56880
:1008C000CE791700FFB27F00BE403543C560521C91
:1008D000B2E7F0BC70474FF6FF7101600021017173
:1008E00000214171002181710021C1717047018394
:1008F000704741837047F0B400230024D2B211F056
:100900000705EDB2AD0012FA05F52B0089B2CD1046
:1009100010EB850589B2CE1010EB8606366A0F27DC
:1009200011F0070C5FFA8CFC5FEA8C0C17FA0CF7DD
:10093000BE432E6289B2CD1010EB85052D6A1D4392
:100940002C0089B2CD1010EB85052C62F0BC7047ED
:1009500010B540F22551DFF8B80400F038FB00284C
:1009600044D0DFF8B0040488601CDFF8A8140880C5
:10097000DFF89C0400F0FCFAA4B2DFF89C14605489
:10098000DFF890040088DFF89414097889B288426F
:1009900026D1002240F22551DFF8740400F0ECFA71
:1009A000DFF8740480780A21DFF86C24D27801FB28
:1009B0000020B0F50470DFF868140860DFF8580410
:1009C00000780A21DFF85024527801FB0020B0F5AE
:1009D0000470DFF8501408600120DFF84C14086040
:1009E00040F22551DFF8280400F028FB10BD00B5C7
:1009F00083B001210420FFF7EDFE08220A21DFF871
:100A00002C04FFF778FF08220B21DFF82004FFF702
:100A100072FF4FF44060009002208DF80400002027
:100A20008DF8060001208DF8070003208DF80500E1
:100A300000A9DFF8F803FFF7F9FE07BD00B585B0A0
:100A400001215FF40020FFF7D4FE4FF41650009010
:100A50000020ADF804000020ADF806000020ADF83D
:100A600008000020ADF80C000420ADF80A0000A931
:100A7000DFF89C0300F0F0F90121DFF8940300F0A7
:100A800069FA05B000BD80B534208DF80000002063
:100A90008DF8010000208DF8020001208DF8030080
:100AA00000A800F0DDFA01BD002801D0401EFBE7E0
:100AB000704780B541F28830DFF87413086040F663
:100AC000FF70FFF7F1FFFFF795FC4FF4FA60FFF7B7
:100AD0006AFC40F6FF70FFF7E7FFD6480078FFF7A3
:100AE0007BFD6420FFF75FFCD3480078FFF774FDBF
:100AF0006420FFF758FC3A20FFF76EFD6420FFF7F3
:100B000052FCCE480078FFF767FD6420FFF74BFCEE
:100B1000CB480078FFF760FD6420FFF744FC01BD7F
:100B200080B50121C74800F092FB002800F08A80C0
:100B30000121C44800F0A4FBBB480068012840F034
:100B40008180FFF7B6FFC048006801283DD1B44856
:100B5000006800280FD1B3480068002802D10020A7
:100B6000B9490860AF480068401EAE4908603B20A4
:100B7000AB49086004E0AA480068401EA849086024
:100B8000A84800680A2190FBF1F03030A9490870AC
:100B9000A44800680A2190FBF1F201FB12003030FA
:100BA000A54908709E4800680A2190FBF1F030309A
:100BB000A24908709A4800680A2190FBF1F201FBF3
:100BC000120030309E4908703CE04220994908707C
:100BD0004F20994908704F20984908704D20984936
:100BE0000870FFF707FC4FF4FA60FFF7DCFB914851
:100BF0000078FFF7F1FC6420FFF7D5FB8E48007802
:100C0000FFF7EAFC6420FFF7CEFB8B480078FFF784
:100C1000E3FC6420FFF7C7FB88480078FFF7DCFCA3
:100C20006420FFF7C0FB86480078FFF7D5FC6420FE
:100C3000FFF7B9FB00220121824800F0FDFA0020F5
:100C40008249086001BD00B58BB001210220FFF789
:100C5000C1FD01210220FFF7CCFD022204217C48C6
:100C6000FFF749FE1020009000208DF806000020BC
:100C70008DF8070002208DF8040003208DF8050090
:100C800000A97348FFF7D2FD0020ADF8080000204E
:100C9000ADF80A004FF4FA5003900020ADF81000B0
:100CA00000208DF8120002A96A4800F017FA01220C
:100CB0000021684800F047FA7020ADF814000120C8
:100CC000ADF816000220ADF8200041F28830079000
:100CD00005A9604800F048FA08215E4800F092FA41
:100CE00001215C4800F032FA01215A4800F093FAE1
:100CF0000BB000BD00B585B001210420FFF779FDE0
:100D000042F20F70ADF804000020ADF8060042F288
:100D1000CF0002900020ADF80C0000208DF80E00EE
:100D200001A9484800F0DAF90121464800F00EFA1E
:100D300001220121434800F07FFA1E208DF80000B7
:100D400000208DF8010001208DF8020001208DF8AF
:100D5000030000A800F084F905B000BD80B5FFF7DE
:100D600046FEFFF76BFEFFF78EFEFFF70DFA00223F
:100D700000210120FFF7D5FB4FF47A70FFF713FB3A
:100D8000002200210120FFF7CCFB4FF47A70FFF71F
:100D90000AFB002200210120FFF7C3FB4FF47A7009
:100DA000FFF701FB012201210120FFF7BAFB4FF4FD
:100DB0007A70FFF7F8FA002200210120FFF756FBB6
:100DC0004FF47A70FFF7EFFAFFF714FB4FF4FA6075
:100DD000FFF7E9FAFFF78EFFFFF735FF012240F238
:100DE00025510B4800F0C8F80020114908600E4852
:100DF00000680128F2D115480068012803D10020BD
:100E00000B490860EAE741F2883009490860E5E7E4
:100E1000004C00403400002030000020180000206A
:100E200028000020240000202C00002000080240A0
:100E30003404004036000020370000203800002035
:100E4000390000200008004010000020140000209D
:100E500000040240000400402DE9F04385B0040086
:100E60000D005FF00009002600275FF00008A88948
:100E70000028208A814639F44059E88850EA090957
:100E8000A4F81090A0898146314810EA0909A88881
:100E9000298908436989084350EA0909A4F80C9094
:100EA000A08A814639F44079A88950EA0909A4F852
:100EB000149000A8FFF70EFC2348844202D0234878
:100EC000844202D10398060001E002980600A0893E
:100ED000000408D5192000FB06F029684900B0FB82
:100EE000F1F0070007E0192000FB06F029688900EF
:100EF000B0FBF1F007006420B7FBF0F00001814681
:100F00005FEA1910642101FB10708046A08900047B
:100F10000AD55FEAC80032306421B0FBF1F010F06E
:100F2000070050EA090909E05FEA0810323064213D
:100F3000B0FBF1F010F00F0050EA0909A4F8089096
:100F400005B0BDE8F083000000100140001401402E
:100F5000F3E9FFFFC9B2002904D0828952F400529C
:100F6000828104E082894DF6FF731A4082817047C6
:100F70008088C005C00D7047F0B400230024002510
:100F8000002689B240F66A17B94206000F00FFB288
:100F90007F09FFB23B0089B211F01F073C00012717
:100FA000A7403D00012B01D10C3604E0022B01D1FA
:100FB000103600E01436D2B2002A03D037682F432F
:100FC000376002E03768AF433760F0BC704770B4F9
:100FD0000200002300250024002089B240F66A1692
:100FE000B1420E00F6B27609F6B2340089B211F0C1
:100FF0001F063500012616FA05F5012C02D1968947
:10100000354006E0022C02D1168A354001E0968A6E
:10101000354089B20E0AB6B23300012616FA03F340
:1010200016883340002D04D0002B02D0012630005A
:1010300001E000263000C0B270BC704710B400223E
:10104000002389B240F66A14A14289B20C0A220038
:101050000124944023009BB2DC43048010BC704701
:1010600070B4002300210F22C478002C21D0174C2B
:10107000246814F4E064D4F5E064240A2300D3F176
:1010800004042100D2B21A4144788C4023008478B1
:10109000144023431B0104780D4D6355012405784A
:1010A00015F01F05AC4005786D110A4E46F8254035
:1010B00009E00124057815F01F05AC4005786D1195
:1010C000054E46F8254070BC704700000CED00E06E
:1010D00000E400E000E100E080E100E0002203889D
:1010E0001A00414B98420ED0454B98420BD0B0F1BC
:1010F000804F08D03D4B984205D03D4B984202D0DE
:101100003C4B984204D14FF68F731A404B881A43D8
:10111000394B984207D0394B984204D04FF6FF43E1
:101120001A400B891A4302804B68C3620B880385FF
:101130002D4B984202D0324B984201D18B7A0386D4
:10114000012383827047018582827047C9B20029DA
:1011500004D0028852F00102028004E002884FF6B7
:10116000FE731A400280704770B4002300240022EE
:10117000058C4FF6FE7635400584058C2C0085885D
:101180002A00058B2B004FF68F752B404FF6FC7510
:101190002B400D882B434FF6FD752C408D892C4339
:1011A0004D882C43104DA84202D0154DA84213D1B2
:1011B0004FF6F7752C40CD892C434FF6FB752C402C
:1011C0008D882C434FF6FF652A404FF6FF552A4085
:1011D0000D8A2A434D8A2A43828003838D684563A2
:1011E000048470BC7047000000000140000400400F
:1011F00000080040000C00400010004000140040B7
:10120000000401400022038B1A004FF6F7731A40C6
:101210000A4302837047C9B2002906D0B0F84420BF
:1012200052F40042A0F8442005E0B0F844205204F3
:10123000520CA0F844207047D2B2002A03D0838910
:101240000B43838102E083898B438381704730B4F1
:101250000200002000230024158A0D402B009589F0
:101260000D402C009BB2002B05D0A4B2002C02D064
:101270000125280001E000252800C0B230BC7047DD
:1012800089B2CA430282704780B54E48006850F068
:1012900001004C49086000204B490860494800683B
:1012A0004A4908404749086049484A490860454852
:1012B000006830F4802043490860002046490860F7
:1012C00000F005F85FF000604449086001BD82B09D
:1012D00000200190002000903A48006850F48030CF
:1012E000384908603748006810F4003000900198D1
:1012F000401C01900098002803D10198B0F5A06F20
:10130000F0D130480068800302D50120009001E050
:1013100000200090009801283ED13148006850F02C
:1013200080502F4908602F48006850F480402D49B4
:10133000086025480068244908602348006850F484
:101340000040214908602048006850F4A0501E4920
:10135000086025481F4908601A48006850F08070EE
:1013600018490860174800688001FBD540F2056005
:101370001E4908601448006880088000124908600F
:101380001148006850F002000F4908600E480068DC
:1013900010F00C000828F9D10B48006830F4000068
:1013A000094908601248134908600648006850F06F
:1013B000806004490860034800680001FBD502B062
:1013C000704700000038024008380240FFFFF6FE78
:1013D00010300024043802400C38024008ED00E0D0
:1013E000403802400070004008544007003C024072
:1013F000003000508438024010B450F8041B81B112
:1014000002681218001D50F8043BDC0744BFA9F124
:101410000104E31852F8044B43F8044B091FF9D1B7
:10142000EBE710BC704750F8041B61B150F8042B77
:10143000D30744BFA9F101039A18002342F8043BE3
:10144000091FFAD1EFE7704710B507497944183101
:10145000064C7C44163404E00A68081D511888477D
:101460000146A142F8D110BD08000000280000008C
:10147000B7FFFFFF200000001C000020000000005C
:1014800079FFFFFF1C000000EC01000000000020BD
:10149000000000004EF68851CEF20001086840F4CA
:1014A000700008604FF00070E1EE100A7047000015
:1014B00000F00BF8002801D0FFF7C6FF0020C0465F
:1014C000C046FFF74BFC00F002F80120704700F027
:1014D00001B800000746384600F002F8FBE70000BC
:1014E00080B5C046C046024A11001820ABBEFBE7DB
:1014F0002600020001488047014800478912000881
:1015000005150008C046C046FFF7C4FFFFF7D0FF2F
:10151000FFF7FEBFFFF7FEBFFFF7FEBFFFF7FEBFFF
:10152000FFF7FEBFFFF7FEBFFFF7FEBFFFF7FEBFEF
:10153000FFF7FEBFFFF7FEBFFFF7FEBFFFF7FEBFDF
:10154000FFF7FEBFFFF7FEBFFFF7FEBFFFF7FEBFCF
:10155000FFF7FEBFFFF7FEBFFFF7FEBFFFF7FEBFBF
:10156000FFF7FEBFFFF7FEBFFFF7FEBFFFF7FEBFAF
:10157000FFF7FEBFFFF7FEBFFFF7FEBFFFF7FEBF9F
:10158000FFF7FEBFFFF7FEBFFFF7FEBFFFF7FEBF8F
:10159000FFF7FEBFFFF7FEBFFFF7FEBFFFF7FEBF7F
:1015A000FFF7FEBFFFF7FEBFFFF7FEBFFFF7FEBF6F
:1015B000FFF7FEBFFFF7FEBFFFF7FEBFFFF7FEBF5F
:1015C000FFF7FEBFFFF7FEBFFFF7FEBFFFF7FEBF4F
:1015D000FFF7FEBFFFF7FEBFFFF7FEBFFFF7FEBF3F
:1015E000FFF7FEBFFFF7FEBFFFF7FEBFFFF7FEBF2F
:1015F000FFF7FEBFFFF7FEBFFFF7FEBFFFF7FEBF1F
:10160000FFF7FEBFFFF7FEBFFFF7FEBFFFF7FEBF0E
:10161000FFF7FEBFFFF7FEBFFFF7FEBFFFF7FEBFFE
:10162000FFF7FEBFFFF7FEBFFFF7FEBFFFF7FEBFEE
:10163000FFF7FEBFFFF7FEBFFFF7FEBFFFF7FEBFDE
:10164000FFF7FEBFFFF7FEBFFFF7FEBFFFF7FEBFCE
:10165000FFF7FEBFFFF7FEBFFFF7FEBFFFF7FEBFBE
:10166000FFF7FEBFFFF7FEBFFFF7FEBFFFF7FEBFAE
:10167000FFF7FEBF000000000102030401020304A3
:101680000607080901000000010000000400000036
:0400000508001505D5
:00000001FF
